{
  "_format": "hh-sol-artifact-1",
  "contractName": "Api3PriceFeed",
  "sourceName": "contracts/misc/Api3PriceFeed.sol",
  "abi": [
    {
      "inputs": [
        {
          "internalType": "contract IApi3Proxy",
          "name": "_oracle",
          "type": "address"
        },
        {
          "internalType": "uint256",
          "name": "_timeout",
          "type": "uint256"
        }
      ],
      "stateMutability": "nonpayable",
      "type": "constructor"
    },
    {
      "anonymous": false,
      "inputs": [
        {
          "indexed": false,
          "internalType": "uint256",
          "name": "_lastGoodPrice",
          "type": "uint256"
        }
      ],
      "name": "LastGoodPriceUpdated",
      "type": "event"
    },
    {
      "anonymous": false,
      "inputs": [
        {
          "indexed": false,
          "internalType": "enum Api3PriceFeed.Status",
          "name": "newStatus",
          "type": "uint8"
        }
      ],
      "name": "PriceFeedStatusChanged",
      "type": "event"
    },
    {
      "inputs": [],
      "name": "DECIMAL_PRECISION",
      "outputs": [
        {
          "internalType": "uint256",
          "name": "",
          "type": "uint256"
        }
      ],
      "stateMutability": "view",
      "type": "function"
    },
    {
      "inputs": [],
      "name": "MAX_PRICE_DEVIATION_FROM_PREVIOUS_ROUND",
      "outputs": [
        {
          "internalType": "uint256",
          "name": "",
          "type": "uint256"
        }
      ],
      "stateMutability": "view",
      "type": "function"
    },
    {
      "inputs": [],
      "name": "MAX_PRICE_DIFFERENCE_BETWEEN_ORACLES",
      "outputs": [
        {
          "internalType": "uint256",
          "name": "",
          "type": "uint256"
        }
      ],
      "stateMutability": "view",
      "type": "function"
    },
    {
      "inputs": [],
      "name": "TARGET_DIGITS",
      "outputs": [
        {
          "internalType": "uint256",
          "name": "",
          "type": "uint256"
        }
      ],
      "stateMutability": "view",
      "type": "function"
    },
    {
      "inputs": [],
      "name": "TIMEOUT",
      "outputs": [
        {
          "internalType": "uint256",
          "name": "",
          "type": "uint256"
        }
      ],
      "stateMutability": "view",
      "type": "function"
    },
    {
      "inputs": [],
      "name": "fetchPrice",
      "outputs": [
        {
          "internalType": "uint256",
          "name": "",
          "type": "uint256"
        }
      ],
      "stateMutability": "view",
      "type": "function"
    },
    {
      "inputs": [],
      "name": "lastGoodPrice",
      "outputs": [
        {
          "internalType": "uint256",
          "name": "",
          "type": "uint256"
        }
      ],
      "stateMutability": "view",
      "type": "function"
    },
    {
      "inputs": [],
      "name": "oracle",
      "outputs": [
        {
          "internalType": "contract IApi3Proxy",
          "name": "",
          "type": "address"
        }
      ],
      "stateMutability": "view",
      "type": "function"
    },
    {
      "inputs": [],
      "name": "status",
      "outputs": [
        {
          "internalType": "enum Api3PriceFeed.Status",
          "name": "",
          "type": "uint8"
        }
      ],
      "stateMutability": "view",
      "type": "function"
    },
    {
      "inputs": [],
      "name": "updatePrice",
      "outputs": [
        {
          "internalType": "uint256",
          "name": "",
          "type": "uint256"
        }
      ],
      "stateMutability": "nonpayable",
      "type": "function"
    }
  ],
  "bytecode": "0x60a060405234801561001057600080fd5b5060405161086e38038061086e8339818101604052604081101561003357600080fd5b508051602090910151600080546001600160a01b0319166001600160a01b03841617815560808290526002805460ff1916905561006e6100e6565b905061007981610183565b15801561009f57508161009d8260200151426101d160201b61025d1790919060201c565b105b6100da5760405162461bcd60e51b815260040180806020018281038252602b815260200180610843602b913960400191505060405180910390fd5b51600155506102da9050565b6100ee6102b7565b600054604080516315f789a960e21b815281516001600160a01b03909316926357de26a492600480840193919291829003018186803b15801561013057600080fd5b505afa92505050801561015c57506040513d604081101561015057600080fd5b50805160209091015160015b61016557610180565b601b9190910b825263ffffffff166020820152600160408201525b90565b60008160400151610196575060016101cc565b602082015115806101aa5750428260200151115b156101b7575060016101cc565b81516000126101c8575060016101cc565b5060005b919050565b600061021983836040518060400160405280601e81526020017f536166654d6174683a207375627472616374696f6e206f766572666c6f77000081525061022060201b60201c565b9392505050565b600081848411156102af5760405162461bcd60e51b81526004018080602001828103825283818151815260200191508051906020019080838360005b8381101561027457818101518382015260200161025c565b50505050905090810190601f1680156102a15780820380516001836020036101000a031916815260200191505b509250505060405180910390fd5b505050900390565b604051806060016040528060008152602001600081526020016000151581525090565b60805161054a6102f96000398061023b52806104b4525061054a6000f3fe608060405234801561001057600080fd5b506004361061009e5760003560e01c806358a6aa881161006657806358a6aa88146100fe578063673a7e28146101065780637dc0d1d01461010e578063a20baee614610132578063f56f48f21461013a5761009e565b80630490be83146100a35780630fdb11cf146100bd5780631be5c92f146100c5578063200d2ed2146100cd57806345079cb4146100f6575b600080fd5b6100ab610142565b60408051918252519081900360200190f35b6100ab610148565b6100ab61015b565b6100d5610160565b604051808260018111156100e557fe5b815260200191505060405180910390f35b6100ab610169565b6100ab610174565b6100ab610180565b61011661021e565b604080516001600160a01b039092168252519081900360200190f35b6100ab61022d565b6100ab610239565b60015481565b6000806101536102a6565b925050505b90565b601281565b60025460ff1681565b66b1a2bc2ec5000081565b6706f05b59d3b2000081565b600080600061018d6102a6565b6001818155919350915082908111156101a257fe5b60025460ff1660018111156101b357fe5b14610218576002805483919060ff1916600183818111156101d057fe5b02179055507f5c57579a8214fe4f710c1c56fa829f045b9fa6d225a744225a30c32188064d4e826040518082600181111561020757fe5b815260200191505060405180910390a15b91505090565b6000546001600160a01b031681565b670de0b6b3a764000081565b7f000000000000000000000000000000000000000000000000000000000000000081565b600061029f83836040518060400160405280601e81526020017f536166654d6174683a207375627472616374696f6e206f766572666c6f77000081525061032d565b9392505050565b60008060006102b36103c4565b9050600060025460ff1660018111156102c857fe5b1415610305576102d781610462565b806102e657506102e6816104b0565b156102f957600180549250925050610329565b51600092509050610329565b600160025460ff16600181111561031857fe5b1415610327576102d781610462565b505b9091565b600081848411156103bc5760405162461bcd60e51b81526004018080602001828103825283818151815260200191508051906020019080838360005b83811015610381578181015183820152602001610369565b50505050905090810190601f1680156103ae5780820380516001836020036101000a031916815260200191505b509250505060405180910390fd5b505050900390565b6103cc6104f1565b600054604080516315f789a960e21b815281516001600160a01b03909316926357de26a492600480840193919291829003018186803b15801561040e57600080fd5b505afa92505050801561043a57506040513d604081101561042e57600080fd5b50805160209091015160015b61044357610158565b601b9190910b825263ffffffff16602082015260016040820152610158565b60008160400151610475575060016104ab565b602082015115806104895750428260200151115b15610496575060016104ab565b81516000126104a7575060016104ab565b5060005b919050565b60007f00000000000000000000000000000000000000000000000000000000000000006104ea83602001514261025d90919063ffffffff16565b1192915050565b60405180606001604052806000815260200160008152602001600015158152509056fea2646970667358221220886a1d612d976c4f9ce4084693cb407cf85e041f876e010b8627fd6b9b96cf4464736f6c634300070600335072696365466565643a2041706933206d75737420626520776f726b696e6720616e642063757272656e74",
  "linkReferences": {},
  "deployedLinkReferences": {}
}