{
  "_format": "hh-sol-artifact-1",
  "contractName": "LendingPoolConfigurator",
  "sourceName": "contracts/protocol/lendingpool/LendingPoolConfigurator.sol",
  "abi": [
    {
      "anonymous": false,
      "inputs": [
        {
          "indexed": true,
          "internalType": "address",
          "name": "asset",
          "type": "address"
        },
        {
          "indexed": true,
          "internalType": "address",
          "name": "proxy",
          "type": "address"
        },
        {
          "indexed": true,
          "internalType": "address",
          "name": "implementation",
          "type": "address"
        }
      ],
      "name": "ATokenUpgraded",
      "type": "event"
    },
    {
      "anonymous": false,
      "inputs": [
        {
          "indexed": true,
          "internalType": "address",
          "name": "asset",
          "type": "address"
        }
      ],
      "name": "BorrowingDisabledOnReserve",
      "type": "event"
    },
    {
      "anonymous": false,
      "inputs": [
        {
          "indexed": true,
          "internalType": "address",
          "name": "asset",
          "type": "address"
        },
        {
          "indexed": false,
          "internalType": "bool",
          "name": "stableRateEnabled",
          "type": "bool"
        }
      ],
      "name": "BorrowingEnabledOnReserve",
      "type": "event"
    },
    {
      "anonymous": false,
      "inputs": [
        {
          "indexed": true,
          "internalType": "address",
          "name": "asset",
          "type": "address"
        },
        {
          "indexed": false,
          "internalType": "uint256",
          "name": "ltv",
          "type": "uint256"
        },
        {
          "indexed": false,
          "internalType": "uint256",
          "name": "liquidationThreshold",
          "type": "uint256"
        },
        {
          "indexed": false,
          "internalType": "uint256",
          "name": "liquidationBonus",
          "type": "uint256"
        }
      ],
      "name": "CollateralConfigurationChanged",
      "type": "event"
    },
    {
      "anonymous": false,
      "inputs": [
        {
          "indexed": true,
          "internalType": "address",
          "name": "asset",
          "type": "address"
        }
      ],
      "name": "ReserveActivated",
      "type": "event"
    },
    {
      "anonymous": false,
      "inputs": [
        {
          "indexed": true,
          "internalType": "address",
          "name": "asset",
          "type": "address"
        }
      ],
      "name": "ReserveDeactivated",
      "type": "event"
    },
    {
      "anonymous": false,
      "inputs": [
        {
          "indexed": true,
          "internalType": "address",
          "name": "asset",
          "type": "address"
        },
        {
          "indexed": false,
          "internalType": "uint256",
          "name": "decimals",
          "type": "uint256"
        }
      ],
      "name": "ReserveDecimalsChanged",
      "type": "event"
    },
    {
      "anonymous": false,
      "inputs": [
        {
          "indexed": true,
          "internalType": "address",
          "name": "asset",
          "type": "address"
        },
        {
          "indexed": false,
          "internalType": "uint256",
          "name": "factor",
          "type": "uint256"
        }
      ],
      "name": "ReserveFactorChanged",
      "type": "event"
    },
    {
      "anonymous": false,
      "inputs": [
        {
          "indexed": true,
          "internalType": "address",
          "name": "asset",
          "type": "address"
        }
      ],
      "name": "ReserveFrozen",
      "type": "event"
    },
    {
      "anonymous": false,
      "inputs": [
        {
          "indexed": true,
          "internalType": "address",
          "name": "asset",
          "type": "address"
        },
        {
          "indexed": true,
          "internalType": "address",
          "name": "aToken",
          "type": "address"
        },
        {
          "indexed": false,
          "internalType": "address",
          "name": "stableDebtToken",
          "type": "address"
        },
        {
          "indexed": false,
          "internalType": "address",
          "name": "variableDebtToken",
          "type": "address"
        },
        {
          "indexed": false,
          "internalType": "address",
          "name": "interestRateStrategyAddress",
          "type": "address"
        }
      ],
      "name": "ReserveInitialized",
      "type": "event"
    },
    {
      "anonymous": false,
      "inputs": [
        {
          "indexed": true,
          "internalType": "address",
          "name": "asset",
          "type": "address"
        },
        {
          "indexed": false,
          "internalType": "address",
          "name": "strategy",
          "type": "address"
        }
      ],
      "name": "ReserveInterestRateStrategyChanged",
      "type": "event"
    },
    {
      "anonymous": false,
      "inputs": [
        {
          "indexed": true,
          "internalType": "address",
          "name": "asset",
          "type": "address"
        }
      ],
      "name": "ReserveUnfrozen",
      "type": "event"
    },
    {
      "anonymous": false,
      "inputs": [
        {
          "indexed": true,
          "internalType": "address",
          "name": "asset",
          "type": "address"
        },
        {
          "indexed": true,
          "internalType": "address",
          "name": "proxy",
          "type": "address"
        },
        {
          "indexed": true,
          "internalType": "address",
          "name": "implementation",
          "type": "address"
        }
      ],
      "name": "StableDebtTokenUpgraded",
      "type": "event"
    },
    {
      "anonymous": false,
      "inputs": [
        {
          "indexed": true,
          "internalType": "address",
          "name": "asset",
          "type": "address"
        }
      ],
      "name": "StableRateDisabledOnReserve",
      "type": "event"
    },
    {
      "anonymous": false,
      "inputs": [
        {
          "indexed": true,
          "internalType": "address",
          "name": "asset",
          "type": "address"
        }
      ],
      "name": "StableRateEnabledOnReserve",
      "type": "event"
    },
    {
      "anonymous": false,
      "inputs": [
        {
          "indexed": true,
          "internalType": "address",
          "name": "asset",
          "type": "address"
        },
        {
          "indexed": true,
          "internalType": "address",
          "name": "proxy",
          "type": "address"
        },
        {
          "indexed": true,
          "internalType": "address",
          "name": "implementation",
          "type": "address"
        }
      ],
      "name": "VariableDebtTokenUpgraded",
      "type": "event"
    },
    {
      "inputs": [
        {
          "internalType": "address",
          "name": "asset",
          "type": "address"
        }
      ],
      "name": "activateReserve",
      "outputs": [],
      "stateMutability": "nonpayable",
      "type": "function"
    },
    {
      "inputs": [
        {
          "components": [
            {
              "internalType": "address",
              "name": "aTokenImpl",
              "type": "address"
            },
            {
              "internalType": "address",
              "name": "stableDebtTokenImpl",
              "type": "address"
            },
            {
              "internalType": "address",
              "name": "variableDebtTokenImpl",
              "type": "address"
            },
            {
              "internalType": "uint8",
              "name": "underlyingAssetDecimals",
              "type": "uint8"
            },
            {
              "internalType": "address",
              "name": "interestRateStrategyAddress",
              "type": "address"
            },
            {
              "internalType": "address",
              "name": "underlyingAsset",
              "type": "address"
            },
            {
              "internalType": "address",
              "name": "treasury",
              "type": "address"
            },
            {
              "internalType": "address",
              "name": "secondTreasury",
              "type": "address"
            },
            {
              "internalType": "address",
              "name": "incentivesController",
              "type": "address"
            },
            {
              "internalType": "uint256",
              "name": "allocPoint",
              "type": "uint256"
            },
            {
              "internalType": "string",
              "name": "underlyingAssetName",
              "type": "string"
            },
            {
              "internalType": "string",
              "name": "aTokenName",
              "type": "string"
            },
            {
              "internalType": "string",
              "name": "aTokenSymbol",
              "type": "string"
            },
            {
              "internalType": "string",
              "name": "variableDebtTokenName",
              "type": "string"
            },
            {
              "internalType": "string",
              "name": "variableDebtTokenSymbol",
              "type": "string"
            },
            {
              "internalType": "string",
              "name": "stableDebtTokenName",
              "type": "string"
            },
            {
              "internalType": "string",
              "name": "stableDebtTokenSymbol",
              "type": "string"
            },
            {
              "internalType": "bytes",
              "name": "params",
              "type": "bytes"
            }
          ],
          "internalType": "struct ILendingPoolConfigurator.InitReserveInput[]",
          "name": "input",
          "type": "tuple[]"
        }
      ],
      "name": "batchInitReserve",
      "outputs": [],
      "stateMutability": "nonpayable",
      "type": "function"
    },
    {
      "inputs": [
        {
          "internalType": "address",
          "name": "asset",
          "type": "address"
        },
        {
          "internalType": "uint256",
          "name": "ltv",
          "type": "uint256"
        },
        {
          "internalType": "uint256",
          "name": "liquidationThreshold",
          "type": "uint256"
        },
        {
          "internalType": "uint256",
          "name": "liquidationBonus",
          "type": "uint256"
        }
      ],
      "name": "configureReserveAsCollateral",
      "outputs": [],
      "stateMutability": "nonpayable",
      "type": "function"
    },
    {
      "inputs": [
        {
          "internalType": "address",
          "name": "asset",
          "type": "address"
        }
      ],
      "name": "deactivateReserve",
      "outputs": [],
      "stateMutability": "nonpayable",
      "type": "function"
    },
    {
      "inputs": [
        {
          "internalType": "address",
          "name": "asset",
          "type": "address"
        }
      ],
      "name": "disableBorrowingOnReserve",
      "outputs": [],
      "stateMutability": "nonpayable",
      "type": "function"
    },
    {
      "inputs": [
        {
          "internalType": "address",
          "name": "asset",
          "type": "address"
        }
      ],
      "name": "disableReserveStableRate",
      "outputs": [],
      "stateMutability": "nonpayable",
      "type": "function"
    },
    {
      "inputs": [],
      "name": "disableRewards",
      "outputs": [],
      "stateMutability": "nonpayable",
      "type": "function"
    },
    {
      "inputs": [
        {
          "internalType": "address",
          "name": "asset",
          "type": "address"
        },
        {
          "internalType": "bool",
          "name": "stableBorrowRateEnabled",
          "type": "bool"
        }
      ],
      "name": "enableBorrowingOnReserve",
      "outputs": [],
      "stateMutability": "nonpayable",
      "type": "function"
    },
    {
      "inputs": [
        {
          "internalType": "address",
          "name": "asset",
          "type": "address"
        }
      ],
      "name": "enableReserveStableRate",
      "outputs": [],
      "stateMutability": "nonpayable",
      "type": "function"
    },
    {
      "inputs": [],
      "name": "enableRewards",
      "outputs": [],
      "stateMutability": "nonpayable",
      "type": "function"
    },
    {
      "inputs": [
        {
          "internalType": "address",
          "name": "asset",
          "type": "address"
        }
      ],
      "name": "freezeReserve",
      "outputs": [],
      "stateMutability": "nonpayable",
      "type": "function"
    },
    {
      "inputs": [
        {
          "internalType": "contract ILendingPoolAddressesProvider",
          "name": "provider",
          "type": "address"
        }
      ],
      "name": "initialize",
      "outputs": [],
      "stateMutability": "nonpayable",
      "type": "function"
    },
    {
      "inputs": [
        {
          "internalType": "bool",
          "name": "val",
          "type": "bool"
        }
      ],
      "name": "setPoolPause",
      "outputs": [],
      "stateMutability": "nonpayable",
      "type": "function"
    },
    {
      "inputs": [
        {
          "internalType": "address",
          "name": "asset",
          "type": "address"
        },
        {
          "internalType": "uint256",
          "name": "reserveFactor",
          "type": "uint256"
        }
      ],
      "name": "setReserveFactor",
      "outputs": [],
      "stateMutability": "nonpayable",
      "type": "function"
    },
    {
      "inputs": [
        {
          "internalType": "address",
          "name": "asset",
          "type": "address"
        },
        {
          "internalType": "address",
          "name": "rateStrategyAddress",
          "type": "address"
        }
      ],
      "name": "setReserveInterestRateStrategyAddress",
      "outputs": [],
      "stateMutability": "nonpayable",
      "type": "function"
    },
    {
      "inputs": [
        {
          "internalType": "address",
          "name": "asset",
          "type": "address"
        }
      ],
      "name": "unfreezeReserve",
      "outputs": [],
      "stateMutability": "nonpayable",
      "type": "function"
    },
    {
      "inputs": [
        {
          "components": [
            {
              "internalType": "address",
              "name": "asset",
              "type": "address"
            },
            {
              "internalType": "address",
              "name": "treasury",
              "type": "address"
            },
            {
              "internalType": "address",
              "name": "secondTreasury",
              "type": "address"
            },
            {
              "internalType": "address",
              "name": "incentivesController",
              "type": "address"
            },
            {
              "internalType": "string",
              "name": "name",
              "type": "string"
            },
            {
              "internalType": "string",
              "name": "symbol",
              "type": "string"
            },
            {
              "internalType": "address",
              "name": "implementation",
              "type": "address"
            },
            {
              "internalType": "bytes",
              "name": "params",
              "type": "bytes"
            }
          ],
          "internalType": "struct ILendingPoolConfigurator.UpdateATokenInput",
          "name": "input",
          "type": "tuple"
        }
      ],
      "name": "updateAToken",
      "outputs": [],
      "stateMutability": "nonpayable",
      "type": "function"
    },
    {
      "inputs": [
        {
          "components": [
            {
              "internalType": "address",
              "name": "asset",
              "type": "address"
            },
            {
              "internalType": "address",
              "name": "incentivesController",
              "type": "address"
            },
            {
              "internalType": "string",
              "name": "name",
              "type": "string"
            },
            {
              "internalType": "string",
              "name": "symbol",
              "type": "string"
            },
            {
              "internalType": "address",
              "name": "implementation",
              "type": "address"
            },
            {
              "internalType": "bytes",
              "name": "params",
              "type": "bytes"
            }
          ],
          "internalType": "struct ILendingPoolConfigurator.UpdateDebtTokenInput",
          "name": "input",
          "type": "tuple"
        }
      ],
      "name": "updateStableDebtToken",
      "outputs": [],
      "stateMutability": "nonpayable",
      "type": "function"
    },
    {
      "inputs": [
        {
          "components": [
            {
              "internalType": "address",
              "name": "asset",
              "type": "address"
            },
            {
              "internalType": "address",
              "name": "incentivesController",
              "type": "address"
            },
            {
              "internalType": "string",
              "name": "name",
              "type": "string"
            },
            {
              "internalType": "string",
              "name": "symbol",
              "type": "string"
            },
            {
              "internalType": "address",
              "name": "implementation",
              "type": "address"
            },
            {
              "internalType": "bytes",
              "name": "params",
              "type": "bytes"
            }
          ],
          "internalType": "struct ILendingPoolConfigurator.UpdateDebtTokenInput",
          "name": "input",
          "type": "tuple"
        }
      ],
      "name": "updateVariableDebtToken",
      "outputs": [],
      "stateMutability": "nonpayable",
      "type": "function"
    }
  ],
  "bytecode": "0x60806040526000805534801561001457600080fd5b506143e0806100246000396000f3fe608060405234801561001057600080fd5b50600436106101215760003560e01c8063a8dc0f45116100ad578063c4d66de811610071578063c4d66de814610227578063eede87c11461023a578063ef1f93731461024d578063f442676614610260578063f53a25151461026857610121565b8063a8dc0f45146101d3578063ad4e6432146101e6578063b75d6f34146101f9578063bc1786281461020c578063bf3441831461021457610121565b80635b07efc6116100f45780635b07efc6146101745780637626cde3146101875780637641f3d91461019a5780637aca76eb146101ad5780637c4e560b146101c057610121565b80631d2118f9146101265780633e72a4541461013b5780634b4e67531461014e57806357d4915514610161575b600080fd5b61013961013436600461352d565b61027b565b005b6101396101493660046134ee565b6103ed565b61013961015c366004613599565b6105e1565b61013961016f3660046135fe565b6107d9565b610139610182366004613792565b6108e5565b6101396101953660046137cb565b610c1e565b6101396101a836600461366d565b610ebc565b6101396101bb3660046134ee565b610fe1565b6101396101ce3660046135c4565b6111cc565b6101396101e13660046134ee565b6114ee565b6101396101f43660046137cb565b6116d9565b6101396102073660046134ee565b611977565b610139611b62565b6101396102223660046134ee565b611d3e565b6101396102353660046134ee565b611f29565b610139610248366004613565565b61207a565b61013961025b3660046134ee565b612270565b61013961245b565b6101396102763660046134ee565b612637565b603454604080516315d9b46f60e31b8152905133926001600160a01b03169163aecda378916004808301926020929190829003018186803b1580156102bf57600080fd5b505afa1580156102d3573d6000803e3d6000fd5b505050506040513d601f19601f820116820180604052508101906102f79190613511565b6001600160a01b03161460405180604001604052806002815260200161333360f01b815250906103435760405162461bcd60e51b815260040161033a9190613b0a565b60405180910390fd5b50603554604051631d2118f960e01b81526001600160a01b0390911690631d2118f99061037690859085906004016138c0565b600060405180830381600087803b15801561039057600080fd5b505af11580156103a4573d6000803e3d6000fd5b50505050816001600160a01b03167f5644b64ebb0ce18c4032248ca52f58355469092ff072866c3dcd8640e817d6a5826040516103e191906138ac565b60405180910390a25050565b603454604080516315d9b46f60e31b8152905133926001600160a01b03169163aecda378916004808301926020929190829003018186803b15801561043157600080fd5b505afa158015610445573d6000803e3d6000fd5b505050506040513d601f19601f820116820180604052508101906104699190613511565b6001600160a01b03161460405180604001604052806002815260200161333360f01b815250906104ac5760405162461bcd60e51b815260040161033a9190613b0a565b506104b681612822565b60355460405163c44b11f760e01b81526000916001600160a01b03169063c44b11f7906104e79085906004016138ac565b60206040518083038186803b1580156104ff57600080fd5b505afa158015610513573d6000803e3d6000fd5b505050506040513d601f19601f820116820180604052508101906105379190613687565b905061054481600061297c565b6035548151604051635c69493b60e11b81526001600160a01b039092169163b8d29276916105779186919060040161395b565b600060405180830381600087803b15801561059157600080fd5b505af11580156105a5573d6000803e3d6000fd5b50506040516001600160a01b03851692507f6f60cf8bd0f218cabe1ea3150bd07b0b758c35c4cfdf7138017a283e65564d5e9150600090a25050565b603454604080516315d9b46f60e31b8152905133926001600160a01b03169163aecda378916004808301926020929190829003018186803b15801561062557600080fd5b505afa158015610639573d6000803e3d6000fd5b505050506040513d601f19601f8201168201806040525081019061065d9190613511565b6001600160a01b03161460405180604001604052806002815260200161333360f01b815250906106a05760405162461bcd60e51b815260040161033a9190613b0a565b5060355460405163c44b11f760e01b81526000916001600160a01b03169063c44b11f7906106d29086906004016138ac565b60206040518083038186803b1580156106ea57600080fd5b505afa1580156106fe573d6000803e3d6000fd5b505050506040513d601f19601f820116820180604052508101906107229190613687565b905061072e81836129aa565b6035548151604051635c69493b60e11b81526001600160a01b039092169163b8d29276916107619187919060040161395b565b600060405180830381600087803b15801561077b57600080fd5b505af115801561078f573d6000803e3d6000fd5b50505050826001600160a01b03167f2694ccb0b585b6a54b8d8b4a47aa874b05c257b43d34e98aee50838be00d3405836040516107cc9190613b1d565b60405180910390a2505050565b603454604080516315d9b46f60e31b8152905133926001600160a01b03169163aecda378916004808301926020929190829003018186803b15801561081d57600080fd5b505afa158015610831573d6000803e3d6000fd5b505050506040513d601f19601f820116820180604052508101906108559190613511565b6001600160a01b03161460405180604001604052806002815260200161333360f01b815250906108985760405162461bcd60e51b815260040161033a9190613b0a565b506035546001600160a01b031660005b828110156108df576108d7828585848181106108c057fe5b90506020028101906108d29190613b9e565b612a6c565b6001016108a8565b50505050565b603454604080516315d9b46f60e31b8152905133926001600160a01b03169163aecda378916004808301926020929190829003018186803b15801561092957600080fd5b505afa15801561093d573d6000803e3d6000fd5b505050506040513d601f19601f820116820180604052508101906109619190613511565b6001600160a01b03161460405180604001604052806002815260200161333360f01b815250906109a45760405162461bcd60e51b815260040161033a9190613b0a565b506035546001600160a01b03166000816335ea6a756109c660208601866134ee565b6040518263ffffffff1660e01b81526004016109e291906138ac565b6101806040518083038186803b1580156109fb57600080fd5b505afa158015610a0f573d6000803e3d6000fd5b505050506040513d601f19601f82011682018060405250810190610a3391906136a2565b90506000610ac76001600160a01b03841663c44b11f7610a5660208801886134ee565b6040518263ffffffff1660e01b8152600401610a7291906138ac565b60206040518083038186803b158015610a8a57600080fd5b505afa158015610a9e573d6000803e3d6000fd5b505050506040513d601f19601f82011682018060405250810190610ac29190613687565b612fe8565b50935060009250633deeb64b60e11b9150859050610aeb60408801602089016134ee565b610afb6060890160408a016134ee565b610b0860208a018a6134ee565b610b1860808b0160608c016134ee565b87610b2660808d018d613b88565b610b3360a08f018f613b88565b8f8060e00190610b439190613b3c565b604051602401610b5e9c9b9a9998979695949392919061397f565b60408051601f198184030181529190526020810180516001600160e01b03166001600160e01b03199093169290921790915260e080850151919250610bb39190610bad90880160c089016134ee565b83613013565b610bc360e0860160c087016134ee565b60e08401516001600160a01b039182169116610be260208801886134ee565b6001600160a01b03167fa76f65411ec66a7fb6bc467432eb14767900449ae4469fa295e4441fe5e1cb7360405160405180910390a45050505050565b603454604080516315d9b46f60e31b8152905133926001600160a01b03169163aecda378916004808301926020929190829003018186803b158015610c6257600080fd5b505afa158015610c76573d6000803e3d6000fd5b505050506040513d601f19601f82011682018060405250810190610c9a9190613511565b6001600160a01b03161460405180604001604052806002815260200161333360f01b81525090610cdd5760405162461bcd60e51b815260040161033a9190613b0a565b506035546001600160a01b03166000816335ea6a75610cff60208601866134ee565b6040518263ffffffff1660e01b8152600401610d1b91906138ac565b6101806040518083038186803b158015610d3457600080fd5b505afa158015610d48573d6000803e3d6000fd5b505050506040513d601f19601f82011682018060405250810190610d6c91906136a2565b90506000610d8f6001600160a01b03841663c44b11f7610a5660208801886134ee565b50935060009250636111764560e11b9150859050610db060208801886134ee565b610dc06040890160208a016134ee565b85610dce60408b018b613b88565b610ddb60608d018d613b88565b610de860a08f018f613b3c565b604051602401610e019a99989796959493929190613a57565b60408051601f198184030181529190526020810180516001600160e01b03166001600160e01b031990931692909217909152610100840151909150610e5090610bad60a08801608089016134ee565b610e6060a08601608087016134ee565b6101008401516001600160a01b039182169116610e8060208801886134ee565b6001600160a01b03167f7a943a5b6c214bf7726c069a878b1e2a8e7371981d516048b84e03743e67bc2860405160405180910390a45050505050565b60345460408051636ee554f560e11b8152905133926001600160a01b03169163ddcaa9ea916004808301926020929190829003018186803b158015610f0057600080fd5b505afa158015610f14573d6000803e3d6000fd5b505050506040513d601f19601f82011682018060405250810190610f389190613511565b6001600160a01b031614604051806040016040528060028152602001611b9b60f11b81525090610f7b5760405162461bcd60e51b815260040161033a9190613b0a565b5060355460405163bedb86fb60e01b81526001600160a01b039091169063bedb86fb90610fac908490600401613974565b600060405180830381600087803b158015610fc657600080fd5b505af1158015610fda573d6000803e3d6000fd5b5050505050565b603454604080516315d9b46f60e31b8152905133926001600160a01b03169163aecda378916004808301926020929190829003018186803b15801561102557600080fd5b505afa158015611039573d6000803e3d6000fd5b505050506040513d601f19601f8201168201806040525081019061105d9190613511565b6001600160a01b03161460405180604001604052806002815260200161333360f01b815250906110a05760405162461bcd60e51b815260040161033a9190613b0a565b5060355460405163c44b11f760e01b81526000916001600160a01b03169063c44b11f7906110d29085906004016138ac565b60206040518083038186803b1580156110ea57600080fd5b505afa1580156110fe573d6000803e3d6000fd5b505050506040513d601f19601f820116820180604052508101906111229190613687565b905061112f81600161307b565b6035548151604051635c69493b60e11b81526001600160a01b039092169163b8d29276916111629186919060040161395b565b600060405180830381600087803b15801561117c57600080fd5b505af1158015611190573d6000803e3d6000fd5b50506040516001600160a01b03851692507f85dc710add8a0914461a7dc5a63f6fc529a7700f8c6089a3faf5e93256ccf12a9150600090a25050565b603454604080516315d9b46f60e31b8152905133926001600160a01b03169163aecda378916004808301926020929190829003018186803b15801561121057600080fd5b505afa158015611224573d6000803e3d6000fd5b505050506040513d601f19601f820116820180604052508101906112489190613511565b6001600160a01b03161460405180604001604052806002815260200161333360f01b8152509061128b5760405162461bcd60e51b815260040161033a9190613b0a565b5060355460405163c44b11f760e01b81526000916001600160a01b03169063c44b11f7906112bd9088906004016138ac565b60206040518083038186803b1580156112d557600080fd5b505afa1580156112e9573d6000803e3d6000fd5b505050506040513d601f19601f8201168201806040525081019061130d9190613687565b90508284111560405180604001604052806002815260200161373560f01b8152509061134c5760405162461bcd60e51b815260040161033a9190613b0a565b5082156113dd57604080518082019091526002815261373560f01b6020820152612710831161138e5760405162461bcd60e51b815260040161033a9190613b0a565b5061271061139c84846130a9565b111560405180604001604052806002815260200161373560f01b815250906113d75760405162461bcd60e51b815260040161033a9190613b0a565b5061141f565b604080518082019091526002815261373560f01b602082015282156114155760405162461bcd60e51b815260040161033a9190613b0a565b5061141f85612822565b611429818561314e565b61143381846131c5565b61143d8183613244565b6035548151604051635c69493b60e11b81526001600160a01b039092169163b8d29276916114709189919060040161395b565b600060405180830381600087803b15801561148a57600080fd5b505af115801561149e573d6000803e3d6000fd5b50505050846001600160a01b03167f637febbda9275aea2e85c0ff690444c8d87eb2e8339bbede9715abcc89cb09958585856040516114df93929190613b26565b60405180910390a25050505050565b603454604080516315d9b46f60e31b8152905133926001600160a01b03169163aecda378916004808301926020929190829003018186803b15801561153257600080fd5b505afa158015611546573d6000803e3d6000fd5b505050506040513d601f19601f8201168201806040525081019061156a9190613511565b6001600160a01b03161460405180604001604052806002815260200161333360f01b815250906115ad5760405162461bcd60e51b815260040161033a9190613b0a565b5060355460405163c44b11f760e01b81526000916001600160a01b03169063c44b11f7906115df9085906004016138ac565b60206040518083038186803b1580156115f757600080fd5b505afa15801561160b573d6000803e3d6000fd5b505050506040513d601f19601f8201168201806040525081019061162f9190613687565b905061163c8160006132c5565b6035548151604051635c69493b60e11b81526001600160a01b039092169163b8d292769161166f9186919060040161395b565b600060405180830381600087803b15801561168957600080fd5b505af115801561169d573d6000803e3d6000fd5b50506040516001600160a01b03851692507fe9a7e5fd4fc8ea18e602350324bf48e8f05d12434af0ce0be05743e6a5fdcb9e9150600090a25050565b603454604080516315d9b46f60e31b8152905133926001600160a01b03169163aecda378916004808301926020929190829003018186803b15801561171d57600080fd5b505afa158015611731573d6000803e3d6000fd5b505050506040513d601f19601f820116820180604052508101906117559190613511565b6001600160a01b03161460405180604001604052806002815260200161333360f01b815250906117985760405162461bcd60e51b815260040161033a9190613b0a565b506035546001600160a01b03166000816335ea6a756117ba60208601866134ee565b6040518263ffffffff1660e01b81526004016117d691906138ac565b6101806040518083038186803b1580156117ef57600080fd5b505afa158015611803573d6000803e3d6000fd5b505050506040513d601f19601f8201168201806040525081019061182791906136a2565b9050600061184a6001600160a01b03841663c44b11f7610a5660208801886134ee565b50935060009250636111764560e11b915085905061186b60208801886134ee565b61187b6040890160208a016134ee565b8561188960408b018b613b88565b61189660608d018d613b88565b6118a360a08f018f613b3c565b6040516024016118bc9a99989796959493929190613a57565b60408051601f198184030181529190526020810180516001600160e01b03166001600160e01b03199093169290921790915261012084015190915061190b90610bad60a08801608089016134ee565b61191b60a08601608087016134ee565b6101208401516001600160a01b03918216911661193b60208801886134ee565b6001600160a01b03167f9439658a562a5c46b1173589df89cf001483d685bad28aedaff4a88656292d8160405160405180910390a45050505050565b603454604080516315d9b46f60e31b8152905133926001600160a01b03169163aecda378916004808301926020929190829003018186803b1580156119bb57600080fd5b505afa1580156119cf573d6000803e3d6000fd5b505050506040513d601f19601f820116820180604052508101906119f39190613511565b6001600160a01b03161460405180604001604052806002815260200161333360f01b81525090611a365760405162461bcd60e51b815260040161033a9190613b0a565b5060355460405163c44b11f760e01b81526000916001600160a01b03169063c44b11f790611a689085906004016138ac565b60206040518083038186803b158015611a8057600080fd5b505afa158015611a94573d6000803e3d6000fd5b505050506040513d601f19601f82011682018060405250810190611ab89190613687565b9050611ac581600161297c565b6035548151604051635c69493b60e11b81526001600160a01b039092169163b8d2927691611af89186919060040161395b565b600060405180830381600087803b158015611b1257600080fd5b505af1158015611b26573d6000803e3d6000fd5b50506040516001600160a01b03851692507f35b80cd8ea3440e9a8454f116fa658b858da1b64c86c48451f4559cefcdfb56c9150600090a25050565b603454604080516315d9b46f60e31b8152905133926001600160a01b03169163aecda378916004808301926020929190829003018186803b158015611ba657600080fd5b505afa158015611bba573d6000803e3d6000fd5b505050506040513d601f19601f82011682018060405250810190611bde9190613511565b6001600160a01b03161460405180604001604052806002815260200161333360f01b81525090611c215760405162461bcd60e51b815260040161033a9190613b0a565b5060345460408051630803bcdb60e21b815290516000926001600160a01b03169163200ef36c916004808301926020929190829003018186803b158015611c6757600080fd5b505afa158015611c7b573d6000803e3d6000fd5b505050506040513d601f19601f82011682018060405250810190611c9f9190613511565b9050806001600160a01b031663973350046040518163ffffffff1660e01b815260040160206040518083038186803b158015611cda57600080fd5b505afa158015611cee573d6000803e3d6000fd5b505050506040513d601f19601f82011682018060405250810190611d129190613511565b6001600160a01b031663bedb86fb60016040518263ffffffff1660e01b8152600401610fac9190613974565b603454604080516315d9b46f60e31b8152905133926001600160a01b03169163aecda378916004808301926020929190829003018186803b158015611d8257600080fd5b505afa158015611d96573d6000803e3d6000fd5b505050506040513d601f19601f82011682018060405250810190611dba9190613511565b6001600160a01b03161460405180604001604052806002815260200161333360f01b81525090611dfd5760405162461bcd60e51b815260040161033a9190613b0a565b5060355460405163c44b11f760e01b81526000916001600160a01b03169063c44b11f790611e2f9085906004016138ac565b60206040518083038186803b158015611e4757600080fd5b505afa158015611e5b573d6000803e3d6000fd5b505050506040513d601f19601f82011682018060405250810190611e7f9190613687565b9050611e8c8160016132f3565b6035548151604051635c69493b60e11b81526001600160a01b039092169163b8d2927691611ebf9186919060040161395b565b600060405180830381600087803b158015611ed957600080fd5b505af1158015611eed573d6000803e3d6000fd5b50506040516001600160a01b03851692507f8dee2b2f3e98319ae6347eda521788f73f4086c9be9a594942b370b137fb8cb19150600090a25050565b6000611f33613321565b60015490915060ff1680611f4a5750611f4a613326565b80611f56575060005481115b611f915760405162461bcd60e51b815260040180806020018281038252602e81526020018061437d602e913960400191505060405180910390fd5b60015460ff16158015611fb0576001805460ff19168117905560008290555b603480546001600160a01b0319166001600160a01b03858116919091179182905560408051630261bf8b60e01b815290519290911691630261bf8b91600480820192602092909190829003018186803b15801561200c57600080fd5b505afa158015612020573d6000803e3d6000fd5b505050506040513d601f19601f820116820180604052508101906120449190613511565b603580546001600160a01b0319166001600160a01b03929092169190911790558015612075576001805460ff191690555b505050565b603454604080516315d9b46f60e31b8152905133926001600160a01b03169163aecda378916004808301926020929190829003018186803b1580156120be57600080fd5b505afa1580156120d2573d6000803e3d6000fd5b505050506040513d601f19601f820116820180604052508101906120f69190613511565b6001600160a01b03161460405180604001604052806002815260200161333360f01b815250906121395760405162461bcd60e51b815260040161033a9190613b0a565b5060355460405163c44b11f760e01b81526000916001600160a01b03169063c44b11f79061216b9086906004016138ac565b60206040518083038186803b15801561218357600080fd5b505afa158015612197573d6000803e3d6000fd5b505050506040513d601f19601f820116820180604052508101906121bb9190613687565b90506121c88160016132c5565b6121d281836132f3565b6035548151604051635c69493b60e11b81526001600160a01b039092169163b8d29276916122059187919060040161395b565b600060405180830381600087803b15801561221f57600080fd5b505af1158015612233573d6000803e3d6000fd5b50505050826001600160a01b03167fab2f7f9e5ca2772fafa94f355c1842a80ae6b9e41f83083098d81f67d7a0b508836040516107cc9190613974565b603454604080516315d9b46f60e31b8152905133926001600160a01b03169163aecda378916004808301926020929190829003018186803b1580156122b457600080fd5b505afa1580156122c8573d6000803e3d6000fd5b505050506040513d601f19601f820116820180604052508101906122ec9190613511565b6001600160a01b03161460405180604001604052806002815260200161333360f01b8152509061232f5760405162461bcd60e51b815260040161033a9190613b0a565b5060355460405163c44b11f760e01b81526000916001600160a01b03169063c44b11f7906123619085906004016138ac565b60206040518083038186803b15801561237957600080fd5b505afa15801561238d573d6000803e3d6000fd5b505050506040513d601f19601f820116820180604052508101906123b19190613687565b90506123be81600061307b565b6035548151604051635c69493b60e11b81526001600160a01b039092169163b8d29276916123f19186919060040161395b565b600060405180830381600087803b15801561240b57600080fd5b505af115801561241f573d6000803e3d6000fd5b50506040516001600160a01b03851692507f838ecdc4709a31a26db48b0c853212cedde3f725f07030079d793fb0719647609150600090a25050565b603454604080516315d9b46f60e31b8152905133926001600160a01b03169163aecda378916004808301926020929190829003018186803b15801561249f57600080fd5b505afa1580156124b3573d6000803e3d6000fd5b505050506040513d601f19601f820116820180604052508101906124d79190613511565b6001600160a01b03161460405180604001604052806002815260200161333360f01b8152509061251a5760405162461bcd60e51b815260040161033a9190613b0a565b5060345460408051630803bcdb60e21b815290516000926001600160a01b03169163200ef36c916004808301926020929190829003018186803b15801561256057600080fd5b505afa158015612574573d6000803e3d6000fd5b505050506040513d601f19601f820116820180604052508101906125989190613511565b9050806001600160a01b031663973350046040518163ffffffff1660e01b815260040160206040518083038186803b1580156125d357600080fd5b505afa1580156125e7573d6000803e3d6000fd5b505050506040513d601f19601f8201168201806040525081019061260b9190613511565b6001600160a01b031663bedb86fb60006040518263ffffffff1660e01b8152600401610fac9190613974565b603454604080516315d9b46f60e31b8152905133926001600160a01b03169163aecda378916004808301926020929190829003018186803b15801561267b57600080fd5b505afa15801561268f573d6000803e3d6000fd5b505050506040513d601f19601f820116820180604052508101906126b39190613511565b6001600160a01b03161460405180604001604052806002815260200161333360f01b815250906126f65760405162461bcd60e51b815260040161033a9190613b0a565b5060355460405163c44b11f760e01b81526000916001600160a01b03169063c44b11f7906127289085906004016138ac565b60206040518083038186803b15801561274057600080fd5b505afa158015612754573d6000803e3d6000fd5b505050506040513d601f19601f820116820180604052508101906127789190613687565b90506127858160006132f3565b6035548151604051635c69493b60e11b81526001600160a01b039092169163b8d29276916127b89186919060040161395b565b600060405180830381600087803b1580156127d257600080fd5b505af11580156127e6573d6000803e3d6000fd5b50506040516001600160a01b03851692507f8bbf35441ac2c607ddecadd3d8ee58636d32f217fad201fb2655581502dd84e39150600090a25050565b6035546040516335ea6a7560e01b81526000916001600160a01b0316906335ea6a75906128539085906004016138ac565b6101806040518083038186803b15801561286c57600080fd5b505afa158015612880573d6000803e3d6000fd5b505050506040513d601f19601f820116820180604052508101906128a491906136a2565b90506000826001600160a01b03166370a082318360e001516040518263ffffffff1660e01b81526004016128d891906138ac565b60206040518083038186803b1580156128f057600080fd5b505afa158015612904573d6000803e3d6000fd5b505050506040513d601f19601f820116820180604052508101906129289190613803565b905080158015612943575060608201516001600160801b0316155b604051806040016040528060028152602001610ccd60f21b815250906108df5760405162461bcd60e51b815260040161033a9190613b0a565b60388161298a57600061298d565b60015b8351670100000000000000191660ff9190911690911b1790915250565b604080518082019091526002815261373160f01b602082015261ffff821115612a515760405162461bcd60e51b81526004018080602001828103825283818151815260200191508051906020019080838360005b83811015612a165781810151838201526020016129fe565b50505050905090810190601f168015612a435780820380516001836020036101000a031916815260200191505b509250505060405180910390fd5b50815169ffff0000000000000000191660409190911b179052565b6000612a80610120830161010084016134ee565b90506000612b5e612a9460208501856134ee565b633deeb64b60e11b86612aad60e0880160c089016134ee565b612abe610100890160e08a016134ee565b612ace60c08a0160a08b016134ee565b88612adf60808c0160608d0161381b565b612aed6101608d018d613b88565b612afb6101808f018f613b88565b8f806102200190612b0c9190613b3c565b604051602401612b279c9b9a99989796959493929190613a08565b60408051601f198184030181529190526020810180516001600160e01b03166001600160e01b03199093169290921790915261332c565b604051631954e55d60e11b81529091506001600160a01b038316906332a9caba90612b949084906101208801359060040161395b565b600060405180830381600087803b158015612bae57600080fd5b505af1158015612bc2573d6000803e3d6000fd5b50612bd79250505060e0840160c085016134ee565b6001600160a01b0316639c9b2e21826040518263ffffffff1660e01b8152600401612c0291906138ac565b600060405180830381600087803b158015612c1c57600080fd5b505af1158015612c30573d6000803e3d6000fd5b505050506000612ccd846020016020810190612c4c91906134ee565b636111764560e11b87612c6560c0890160a08a016134ee565b612c776101208a016101008b016134ee565b612c8760808b0160608c0161381b565b612c956101e08c018c613b88565b612ca36102008e018e613b88565b8e806102200190612cb49190613b3c565b604051602401612b279a99989796959493929190613acc565b90506000612d4c612ce460608701604088016134ee565b636111764560e11b88612cfd60c08a0160a08b016134ee565b612d0f6101208b016101008c016134ee565b612d1f60808c0160608d0161381b565b612d2d6101a08d018d613b88565b612d3b6101c08f018f613b88565b8f806102200190612cb49190613b3c565b604051631954e55d60e11b81529091506001600160a01b038516906332a9caba90612d829084906101208a01359060040161395b565b600060405180830381600087803b158015612d9c57600080fd5b505af1158015612db0573d6000803e3d6000fd5b5050506001600160a01b0387169050637a708e92612dd460c0880160a089016134ee565b858585612de760a08c0160808d016134ee565b6040518663ffffffff1660e01b8152600401612e079594939291906138fd565b600060405180830381600087803b158015612e2157600080fd5b505af1158015612e35573d6000803e3d6000fd5b506000925050506001600160a01b03871663c44b11f7612e5b60c0890160a08a016134ee565b6040518263ffffffff1660e01b8152600401612e7791906138ac565b60206040518083038186803b158015612e8f57600080fd5b505afa158015612ea3573d6000803e3d6000fd5b505050506040513d601f19601f82011682018060405250810190612ec79190613687565b9050612ee6612edc608088016060890161381b565b829060ff166133ce565b612ef181600161297c565b612efc81600061307b565b6001600160a01b03871663b8d29276612f1b60c0890160a08a016134ee565b83516040516001600160e01b031960e085901b168152612f3f92919060040161395b565b600060405180830381600087803b158015612f5957600080fd5b505af1158015612f6d573d6000803e3d6000fd5b5050506001600160a01b0385169050612f8c60c0880160a089016134ee565b6001600160a01b03167f3a0ca721fc364424566385a1aa271ed508cc2c0949c2272575fb3013a163a45f8585612fc860a08c0160808d016134ee565b604051612fd7939291906138da565b60405180910390a350505050505050565b5161ffff80821692601083901c821692602081901c831692603082901c60ff169260409290921c1690565b60405163278f794360e11b815283906001600160a01b03821690634f1ef28690613043908690869060040161392f565b600060405180830381600087803b15801561305d57600080fd5b505af1158015613071573d6000803e3d6000fd5b5050505050505050565b60398161308957600061308c565b60015b8351670200000000000000191660ff9190911690911b1790915250565b60008215806130b6575081155b156130c357506000613148565b8161138819816130cf57fe5b0483111560405180604001604052806002815260200161068760f31b8152509061313a5760405162461bcd60e51b8152602060048201818152835160248401528351909283926044909101919085019080838360008315612a165781810151838201526020016129fe565b505061271061138882840201045b92915050565b604080518082019091526002815261363760f01b602082015261ffff8211156131b85760405162461bcd60e51b8152602060048201818152835160248401528351909283926044909101919085019080838360008315612a165781810151838201526020016129fe565b50815161ffff1916179052565b60408051808201909152600281526106c760f31b602082015261ffff82111561322f5760405162461bcd60e51b8152602060048201818152835160248401528351909283926044909101919085019080838360008315612a165781810151838201526020016129fe565b50815163ffff0000191660109190911b179052565b604080518082019091526002815261363960f01b602082015261ffff8211156132ae5760405162461bcd60e51b8152602060048201818152835160248401528351909283926044909101919085019080838360008315612a165781810151838201526020016129fe565b50815165ffff00000000191660209190911b179052565b603a816132d35760006132d6565b60015b8351670400000000000000191660ff9190911690911b1790915250565b603b81613301576000613304565b60015b8351670800000000000000191660ff9190911690911b1790915250565b600290565b303b1590565b6000803060405161333c9061344f565b61334691906138ac565b604051809103906000f080158015613362573d6000803e3d6000fd5b5060405163347d5e2560e21b81529091506001600160a01b0382169063d1f5789490613394908790879060040161392f565b600060405180830381600087803b1580156133ae57600080fd5b505af11580156133c2573d6000803e3d6000fd5b50929695505050505050565b604080518082019091526002815261037360f41b602082015260ff8211156134375760405162461bcd60e51b8152602060048201818152835160248401528351909283926044909101919085019080838360008315612a165781810151838201526020016129fe565b50815166ff000000000000191660309190911b179052565b61077380613c0a83390190565b805161346781613be2565b919050565b8035801515811461346757600080fd5b60006020828403121561348d578081fd5b6040516020810181811067ffffffffffffffff821117156134aa57fe5b6040529151825250919050565b80516001600160801b038116811461346757600080fd5b805164ffffffffff8116811461346757600080fd5b805161346781613bfa565b6000602082840312156134ff578081fd5b813561350a81613be2565b9392505050565b600060208284031215613522578081fd5b815161350a81613be2565b6000806040838503121561353f578081fd5b823561354a81613be2565b9150602083013561355a81613be2565b809150509250929050565b60008060408385031215613577578182fd5b823561358281613be2565b91506135906020840161346c565b90509250929050565b600080604083850312156135ab578182fd5b82356135b681613be2565b946020939093013593505050565b600080600080608085870312156135d9578182fd5b84356135e481613be2565b966020860135965060408601359560600135945092505050565b60008060208385031215613610578182fd5b823567ffffffffffffffff80821115613627578384fd5b818501915085601f83011261363a578384fd5b813581811115613648578485fd5b866020808302850101111561365b578485fd5b60209290920196919550909350505050565b60006020828403121561367e578081fd5b61350a8261346c565b600060208284031215613698578081fd5b61350a838361347c565b60006101808083850312156136b5578182fd5b6136be81613bbe565b90506136ca848461347c565b81526136d8602084016134b7565b60208201526136e9604084016134b7565b60408201526136fa606084016134b7565b606082015261370b608084016134b7565b608082015261371c60a084016134b7565b60a082015261372d60c084016134ce565b60c082015261373e60e0840161345c565b60e082015261010061375181850161345c565b9082015261012061376384820161345c565b9082015261014061377584820161345c565b908201526101606137878482016134e3565b908201529392505050565b6000602082840312156137a3578081fd5b813567ffffffffffffffff8111156137b9578182fd5b8201610100818503121561350a578182fd5b6000602082840312156137dc578081fd5b813567ffffffffffffffff8111156137f2578182fd5b820160c0818503121561350a578182fd5b600060208284031215613814578081fd5b5051919050565b60006020828403121561382c578081fd5b813561350a81613bfa565b60008284528282602086013780602084860101526020601f19601f85011685010190509392505050565b60008151808452815b818110156138865760208185018101518683018201520161386a565b818111156138975782602083870101525b50601f01601f19169290920160200192915050565b6001600160a01b0391909116815260200190565b6001600160a01b0392831681529116602082015260400190565b6001600160a01b0393841681529183166020830152909116604082015260600190565b6001600160a01b0395861681529385166020850152918416604084015283166060830152909116608082015260a00190565b6001600160a01b038316815260406020820181905260009061395390830184613861565b949350505050565b6001600160a01b03929092168252602082015260400190565b901515815260200190565b6001600160a01b038d811682528c811660208301528b811660408301528a811660608301528916608082015260a0810188905261012060c082018190526000906139cc908301888a613837565b82810360e08401526139df818789613837565b90508281036101008401526139f5818587613837565b9f9e505050505050505050505050505050565b6001600160a01b038d811682528c811660208301528b811660408301528a811660608301528916608082015260ff881660a082015261012060c082018190526000906139cc908301888a613837565b6001600160a01b038b811682528a81166020830152891660408201526060810188905260e060808201819052600090613a93908301888a613837565b82810360a0840152613aa6818789613837565b905082810360c0840152613abb818587613837565b9d9c50505050505050505050505050565b6001600160a01b038b811682528a811660208301528916604082015260ff8816606082015260e060808201819052600090613a93908301888a613837565b60006020825261350a6020830184613861565b90815260200190565b9283526020830191909152604082015260600190565b6000808335601e19843603018112613b52578283fd5b83018035915067ffffffffffffffff821115613b6c578283fd5b602001915036819003821315613b8157600080fd5b9250929050565b6000808335601e19843603018112613b52578182fd5b6000823561023e19833603018112613bb4578182fd5b9190910192915050565b60405181810167ffffffffffffffff81118282101715613bda57fe5b604052919050565b6001600160a01b0381168114613bf757600080fd5b50565b60ff81168114613bf757600080fdfe60a060405234801561001057600080fd5b506040516107733803806107738339818101604052602081101561003357600080fd5b5051606081901b6001600160601b0319166080526001600160a01b03166106f36100806000398061022852806102725280610331528061045e528061048752806105af52506106f36000f3fe60806040526004361061004a5760003560e01c80633659cfe6146100545780634f1ef286146100875780635c60da1b14610107578063d1f5789414610138578063f851a440146101ee575b610052610203565b005b34801561006057600080fd5b506100526004803603602081101561007757600080fd5b50356001600160a01b031661021d565b6100526004803603604081101561009d57600080fd5b6001600160a01b0382351691908101906040810160208201356401000000008111156100c857600080fd5b8201836020820111156100da57600080fd5b803590602001918460018302840111640100000000831117156100fc57600080fd5b509092509050610267565b34801561011357600080fd5b5061011c610324565b604080516001600160a01b039092168252519081900360200190f35b6100526004803603604081101561014e57600080fd5b6001600160a01b03823516919081019060408101602082013564010000000081111561017957600080fd5b82018360208201111561018b57600080fd5b803590602001918460018302840111640100000000831117156101ad57600080fd5b91908080601f016020809104026020016040519081016040528093929190818152602001838380828437600092019190915250929550610371945050505050565b3480156101fa57600080fd5b5061011c610451565b61020b6104ab565b61021b6102166104b3565b6104d8565b565b336001600160a01b037f000000000000000000000000000000000000000000000000000000000000000016141561025c57610257816104fc565b610264565b610264610203565b50565b336001600160a01b037f0000000000000000000000000000000000000000000000000000000000000000161415610317576102a1836104fc565b6000836001600160a01b031683836040518083838082843760405192019450600093509091505080830381855af49150503d80600081146102fe576040519150601f19603f3d011682016040523d82523d6000602084013e610303565b606091505b505090508061031157600080fd5b5061031f565b61031f610203565b505050565b6000336001600160a01b037f00000000000000000000000000000000000000000000000000000000000000001614156103665761035f6104b3565b905061036e565b61036e610203565b90565b600061037b6104b3565b6001600160a01b03161461038e57600080fd5b6103978261053c565b80511561044d576000826001600160a01b0316826040518082805190602001908083835b602083106103da5780518252601f1990920191602091820191016103bb565b6001836020036101000a038019825116818451168082178552505050505050905001915050600060405180830381855af49150503d806000811461043a576040519150601f19603f3d011682016040523d82523d6000602084013e61043f565b606091505b505090508061031f57600080fd5b5050565b6000336001600160a01b037f000000000000000000000000000000000000000000000000000000000000000016141561036657507f000000000000000000000000000000000000000000000000000000000000000061036e565b61021b6105a4565b7f360894a13ba1a3210667c828492db98dca3e2076cc3735a920a3ca505d382bbc5490565b3660008037600080366000845af43d6000803e8080156104f7573d6000f35b3d6000fd5b6105058161053c565b6040516001600160a01b038216907fbc7cd75a20ee27fd9adebab32041f755214dbc6bffa90cc0225b39da2e5c2d3b90600090a250565b61054581610614565b6105805760405162461bcd60e51b815260040180806020018281038252603b815260200180610683603b913960400191505060405180910390fd5b7f360894a13ba1a3210667c828492db98dca3e2076cc3735a920a3ca505d382bbc55565b336001600160a01b037f000000000000000000000000000000000000000000000000000000000000000016141561060c5760405162461bcd60e51b81526004018080602001828103825260328152602001806106516032913960400191505060405180910390fd5b61021b61021b565b6000813f7fc5d2460186f7233c927e7db2dcc703c0e500b653ca82273b7bfad8045d85a47081811480159061064857508115155b94935050505056fe43616e6e6f742063616c6c2066616c6c6261636b2066756e6374696f6e2066726f6d207468652070726f78792061646d696e43616e6e6f742073657420612070726f787920696d706c656d656e746174696f6e20746f2061206e6f6e2d636f6e74726163742061646472657373a2646970667358221220354176803b54436ecdaea6509259ddd412b0447c3107a85e8ae96b5f8424f8e564736f6c63430007060033436f6e747261637420696e7374616e63652068617320616c7265616479206265656e20696e697469616c697a6564a2646970667358221220681f6e7e4b434070983c026794fb534c337367123d5dbc9b2cc0a604f7b5332764736f6c63430007060033",
  "linkReferences": {},
  "deployedLinkReferences": {}
}